{
  "_format": "hh-sol-artifact-1",
  "contractName": "hack1",
  "sourceName": "contracts/hack1.sol",
  "abi": [
    {
      "inputs": [
        {
          "internalType": "string",
          "name": "",
          "type": "string"
        }
      ],
      "name": "throwError",
      "type": "error"
    },
    {
      "inputs": [],
      "name": "BID",
      "outputs": [
        {
          "internalType": "uint256",
          "name": "",
          "type": "uint256"
        }
      ],
      "stateMutability": "view",
      "type": "function"
    },
    {
      "inputs": [],
      "name": "NUM",
      "outputs": [
        {
          "internalType": "uint256",
          "name": "",
          "type": "uint256"
        }
      ],
      "stateMutability": "view",
      "type": "function"
    },
    {
      "inputs": [],
      "name": "SID",
      "outputs": [
        {
          "internalType": "uint256",
          "name": "",
          "type": "uint256"
        }
      ],
      "stateMutability": "view",
      "type": "function"
    },
    {
      "inputs": [
        {
          "internalType": "uint256",
          "name": "",
          "type": "uint256"
        }
      ],
      "name": "bidDetails",
      "outputs": [
        {
          "internalType": "address",
          "name": "maintainerAddress",
          "type": "address"
        },
        {
          "internalType": "string",
          "name": "title",
          "type": "string"
        },
        {
          "internalType": "string",
          "name": "description",
          "type": "string"
        },
        {
          "internalType": "string",
          "name": "url",
          "type": "string"
        },
        {
          "internalType": "uint256",
          "name": "reward",
          "type": "uint256"
        },
        {
          "internalType": "string",
          "name": "tags",
          "type": "string"
        },
        {
          "internalType": "string",
          "name": "category",
          "type": "string"
        },
        {
          "internalType": "bool",
          "name": "solved",
          "type": "bool"
        }
      ],
      "stateMutability": "view",
      "type": "function"
    },
    {
      "inputs": [
        {
          "internalType": "uint256",
          "name": "value",
          "type": "uint256"
        }
      ],
      "name": "getRewards",
      "outputs": [
        {
          "internalType": "uint256",
          "name": "",
          "type": "uint256"
        }
      ],
      "stateMutability": "view",
      "type": "function"
    },
    {
      "inputs": [
        {
          "internalType": "uint256",
          "name": "value",
          "type": "uint256"
        }
      ],
      "name": "gettingRanks",
      "outputs": [
        {
          "internalType": "uint256",
          "name": "",
          "type": "uint256"
        }
      ],
      "stateMutability": "view",
      "type": "function"
    },
    {
      "inputs": [
        {
          "internalType": "uint256",
          "name": "",
          "type": "uint256"
        }
      ],
      "name": "maintainerAddrs",
      "outputs": [
        {
          "internalType": "address",
          "name": "",
          "type": "address"
        }
      ],
      "stateMutability": "view",
      "type": "function"
    },
    {
      "inputs": [
        {
          "internalType": "address",
          "name": "",
          "type": "address"
        },
        {
          "internalType": "uint256",
          "name": "",
          "type": "uint256"
        }
      ],
      "name": "maintainerBID",
      "outputs": [
        {
          "internalType": "uint256",
          "name": "",
          "type": "uint256"
        }
      ],
      "stateMutability": "view",
      "type": "function"
    },
    {
      "inputs": [
        {
          "internalType": "uint256",
          "name": "_BID",
          "type": "uint256"
        },
        {
          "internalType": "string",
          "name": "_title",
          "type": "string"
        },
        {
          "internalType": "string",
          "name": "_desc",
          "type": "string"
        },
        {
          "internalType": "string",
          "name": "_url",
          "type": "string"
        },
        {
          "internalType": "string",
          "name": "_tags",
          "type": "string"
        }
      ],
      "name": "maintainerUpdate",
      "outputs": [],
      "stateMutability": "nonpayable",
      "type": "function"
    },
    {
      "inputs": [
        {
          "internalType": "uint256",
          "name": "",
          "type": "uint256"
        }
      ],
      "name": "rankerAddress",
      "outputs": [
        {
          "internalType": "address",
          "name": "",
          "type": "address"
        }
      ],
      "stateMutability": "view",
      "type": "function"
    },
    {
      "inputs": [
        {
          "internalType": "address",
          "name": "",
          "type": "address"
        }
      ],
      "name": "rankerContribution",
      "outputs": [
        {
          "internalType": "uint256",
          "name": "",
          "type": "uint256"
        }
      ],
      "stateMutability": "view",
      "type": "function"
    },
    {
      "inputs": [
        {
          "internalType": "string",
          "name": "_title",
          "type": "string"
        },
        {
          "internalType": "string",
          "name": "_desc",
          "type": "string"
        },
        {
          "internalType": "string",
          "name": "_url",
          "type": "string"
        },
        {
          "internalType": "string",
          "name": "_tags",
          "type": "string"
        },
        {
          "internalType": "string",
          "name": "_category",
          "type": "string"
        }
      ],
      "name": "setDataMaintainerFree",
      "outputs": [],
      "stateMutability": "nonpayable",
      "type": "function"
    },
    {
      "inputs": [
        {
          "internalType": "string",
          "name": "_title",
          "type": "string"
        },
        {
          "internalType": "string",
          "name": "_desc",
          "type": "string"
        },
        {
          "internalType": "string",
          "name": "_url",
          "type": "string"
        },
        {
          "internalType": "string",
          "name": "_tags",
          "type": "string"
        },
        {
          "internalType": "string",
          "name": "_category",
          "type": "string"
        }
      ],
      "name": "setDataMaintainerPiad",
      "outputs": [],
      "stateMutability": "payable",
      "type": "function"
    },
    {
      "inputs": [
        {
          "internalType": "uint256",
          "name": "_BID",
          "type": "uint256"
        },
        {
          "internalType": "string",
          "name": "_desc",
          "type": "string"
        },
        {
          "internalType": "string",
          "name": "_url",
          "type": "string"
        }
      ],
      "name": "setDataSolver",
      "outputs": [],
      "stateMutability": "nonpayable",
      "type": "function"
    },
    {
      "inputs": [
        {
          "internalType": "uint256",
          "name": "",
          "type": "uint256"
        }
      ],
      "name": "sidDetails",
      "outputs": [
        {
          "internalType": "address",
          "name": "solverAddress",
          "type": "address"
        },
        {
          "internalType": "uint256",
          "name": "bid",
          "type": "uint256"
        },
        {
          "internalType": "string",
          "name": "description",
          "type": "string"
        },
        {
          "internalType": "string",
          "name": "url",
          "type": "string"
        }
      ],
      "stateMutability": "view",
      "type": "function"
    },
    {
      "inputs": [
        {
          "internalType": "uint256",
          "name": "",
          "type": "uint256"
        }
      ],
      "name": "solverAddrs",
      "outputs": [
        {
          "internalType": "address",
          "name": "",
          "type": "address"
        }
      ],
      "stateMutability": "view",
      "type": "function"
    },
    {
      "inputs": [
        {
          "internalType": "address",
          "name": "",
          "type": "address"
        },
        {
          "internalType": "uint256",
          "name": "",
          "type": "uint256"
        }
      ],
      "name": "solverSID",
      "outputs": [
        {
          "internalType": "uint256",
          "name": "",
          "type": "uint256"
        }
      ],
      "stateMutability": "view",
      "type": "function"
    },
    {
      "inputs": [
        {
          "internalType": "uint256",
          "name": "_SID",
          "type": "uint256"
        },
        {
          "internalType": "uint256",
          "name": "_BID",
          "type": "uint256"
        },
        {
          "internalType": "string",
          "name": "_desc",
          "type": "string"
        },
        {
          "internalType": "string",
          "name": "_url",
          "type": "string"
        }
      ],
      "name": "solverUpdate",
      "outputs": [],
      "stateMutability": "nonpayable",
      "type": "function"
    },
    {
      "inputs": [
        {
          "internalType": "address payable",
          "name": "tipAddress",
          "type": "address"
        }
      ],
      "name": "tipping",
      "outputs": [],
      "stateMutability": "payable",
      "type": "function"
    },
    {
      "inputs": [
        {
          "internalType": "address payable",
          "name": "solveAddress",
          "type": "address"
        },
        {
          "internalType": "uint256",
          "name": "_BID",
          "type": "uint256"
        }
      ],
      "name": "transferMoney",
      "outputs": [],
      "stateMutability": "nonpayable",
      "type": "function"
    }
  ],
  "bytecode": "0x6080604052600060085560006009556000600a5534801561001f57600080fd5b506125168061002f6000396000f3fe60806040526004361061011f5760003560e01c80639ea94fe8116100a0578063ba6e174311610064578063ba6e174314610421578063bb8c0eb71461044a578063c0d8012c14610473578063f1a79eea146104b0578063fee666ad146104ed5761011f565b80639ea94fe81461032f578063a536dfca1461036c578063b14c879014610388578063b3622224146103c5578063b57de408146103e15761011f565b8063487a6038116100e7578063487a60381461024a578063796e2304146102755780637a8967fd1461029e578063897cb91e146102db57806393f3dca3146103065761011f565b80631e02a709146101245780631e50016f1461016157806330f2b1911461019e5780633463499c146101c95780634872131d14610206575b600080fd5b34801561013057600080fd5b5061014b60048036038101906101469190611806565b610516565b6040516101589190611874565b60405180910390f35b34801561016d57600080fd5b50610188600480360381019061018391906118bb565b610549565b60405161019591906118f7565b60405180910390f35b3480156101aa57600080fd5b506101b3610561565b6040516101c091906118f7565b60405180910390f35b3480156101d557600080fd5b506101f060048036038101906101eb9190611806565b610567565b6040516101fd9190611874565b60405180910390f35b34801561021257600080fd5b5061022d60048036038101906102289190611806565b61059a565b6040516102419897969594939291906119bd565b60405180910390f35b34801561025657600080fd5b5061025f6108b7565b60405161026c91906118f7565b60405180910390f35b34801561028157600080fd5b5061029c60048036038101906102979190611b93565b6108bd565b005b3480156102aa57600080fd5b506102c560048036038101906102c09190611c1e565b610c41565b6040516102d291906118f7565b60405180910390f35b3480156102e757600080fd5b506102f0610c72565b6040516102fd91906118f7565b60405180910390f35b34801561031257600080fd5b5061032d60048036038101906103289190611c5e565b610c78565b005b34801561033b57600080fd5b5061035660048036038101906103519190611c1e565b610eb3565b60405161036391906118f7565b60405180910390f35b61038660048036038101906103819190611da3565b610ee4565b005b34801561039457600080fd5b506103af60048036038101906103aa9190611806565b610f2e565b6040516103bc91906118f7565b60405180910390f35b6103df60048036038101906103da9190611c5e565b610faa565b005b3480156103ed57600080fd5b5061040860048036038101906104039190611806565b61122e565b6040516104189493929190611dd0565b60405180910390f35b34801561042d57600080fd5b5061044860048036038101906104439190611e23565b61138e565b005b34801561045657600080fd5b50610471600480360381019061046c9190611ec2565b6114f8565b005b34801561047f57600080fd5b5061049a60048036038101906104959190611806565b611638565b6040516104a791906118f7565b60405180910390f35b3480156104bc57600080fd5b506104d760048036038101906104d29190611806565b611658565b6040516104e49190611874565b60405180910390f35b3480156104f957600080fd5b50610514600480360381019061050f9190611fad565b61168b565b005b60066020528060005260406000206000915054906101000a900473ffffffffffffffffffffffffffffffffffffffff1681565b60076020528060005260406000206000915090505481565b60095481565b60046020528060005260406000206000915054906101000a900473ffffffffffffffffffffffffffffffffffffffff1681565b60026020528060005260406000206000915090508060000160009054906101000a900473ffffffffffffffffffffffffffffffffffffffff16908060010180546105e39061201c565b80601f016020809104026020016040519081016040528092919081815260200182805461060f9061201c565b801561065c5780601f106106315761010080835404028352916020019161065c565b820191906000526020600020905b81548152906001019060200180831161063f57829003601f168201915b5050505050908060020180546106719061201c565b80601f016020809104026020016040519081016040528092919081815260200182805461069d9061201c565b80156106ea5780601f106106bf576101008083540402835291602001916106ea565b820191906000526020600020905b8154815290600101906020018083116106cd57829003601f168201915b5050505050908060030180546106ff9061201c565b80601f016020809104026020016040519081016040528092919081815260200182805461072b9061201c565b80156107785780601f1061074d57610100808354040283529160200191610778565b820191906000526020600020905b81548152906001019060200180831161075b57829003601f168201915b5050505050908060040154908060050180546107939061201c565b80601f01602080910402602001604051908101604052809291908181526020018280546107bf9061201c565b801561080c5780601f106107e15761010080835404028352916020019161080c565b820191906000526020600020905b8154815290600101906020018083116107ef57829003601f168201915b5050505050908060060180546108219061201c565b80601f016020809104026020016040519081016040528092919081815260200182805461084d9061201c565b801561089a5780601f1061086f5761010080835404028352916020019161089a565b820191906000526020600020905b81548152906001019060200180831161087d57829003601f168201915b5050505050908060070160009054906101000a900460ff16905088565b60085481565b3360066000600a54815260200190815260200160002060006101000a81548173ffffffffffffffffffffffffffffffffffffffff021916908373ffffffffffffffffffffffffffffffffffffffff16021790555060006007600060066000600a54815260200190815260200160002060009054906101000a900473ffffffffffffffffffffffffffffffffffffffff1673ffffffffffffffffffffffffffffffffffffffff1673ffffffffffffffffffffffffffffffffffffffff1681526020019081526020016000205414610a1b576007600060066000600a54815260200190815260200160002060009054906101000a900473ffffffffffffffffffffffffffffffffffffffff1673ffffffffffffffffffffffffffffffffffffffff1673ffffffffffffffffffffffffffffffffffffffff1681526020019081526020016000206000815480929190610a129061207c565b91905055610a95565b60016007600060066000600a54815260200190815260200160002060009054906101000a900473ffffffffffffffffffffffffffffffffffffffff1673ffffffffffffffffffffffffffffffffffffffff1673ffffffffffffffffffffffffffffffffffffffff1681526020019081526020016000208190555b50600360003373ffffffffffffffffffffffffffffffffffffffff1673ffffffffffffffffffffffffffffffffffffffff16815260200190815260200160002060095490806001815401808255809150506001900390600052602060002001600090919091909150553360046000600954815260200190815260200160002060006101000a81548173ffffffffffffffffffffffffffffffffffffffff021916908373ffffffffffffffffffffffffffffffffffffffff1602179055503360056000600954815260200190815260200160002060000160006101000a81548173ffffffffffffffffffffffffffffffffffffffff021916908373ffffffffffffffffffffffffffffffffffffffff1602179055508260056000600954815260200190815260200160002060010181905550816005600060095481526020019081526020016000206002019081610beb9190612270565b50806005600060095481526020019081526020016000206003019081610c119190612270565b506001600954610c219190612342565b6009819055506001600a54610c369190612342565b600a81905550505050565b60006020528160005260406000208181548110610c5d57600080fd5b90600052602060002001600091509150505481565b600a5481565b6000803373ffffffffffffffffffffffffffffffffffffffff1673ffffffffffffffffffffffffffffffffffffffff16815260200190815260200160002060085490806001815401808255809150506001900390600052602060002001600090919091909150553360016000600854815260200190815260200160002060006101000a81548173ffffffffffffffffffffffffffffffffffffffff021916908373ffffffffffffffffffffffffffffffffffffffff1602179055503360026000600854815260200190815260200160002060000160006101000a81548173ffffffffffffffffffffffffffffffffffffffff021916908373ffffffffffffffffffffffffffffffffffffffff160217905550846002600060085481526020019081526020016000206001019081610daf9190612270565b50836002600060085481526020019081526020016000206002019081610dd59190612270565b50826002600060085481526020019081526020016000206003019081610dfb9190612270565b50600060026000600854815260200190815260200160002060040181905550816002600060085481526020019081526020016000206005019081610e3f9190612270565b50806002600060085481526020019081526020016000206006019081610e659190612270565b50600060026000600854815260200190815260200160002060070160006101000a81548160ff0219169083151502179055506001600854610ea69190612342565b6008819055505050505050565b60036020528160005260406000208181548110610ecf57600080fd5b90600052602060002001600091509150505481565b8073ffffffffffffffffffffffffffffffffffffffff166108fc349081150290604051600060405180830381858888f19350505050158015610f2a573d6000803e3d6000fd5b5050565b6000600760006006600085815260200190815260200160002060009054906101000a900473ffffffffffffffffffffffffffffffffffffffff1673ffffffffffffffffffffffffffffffffffffffff1673ffffffffffffffffffffffffffffffffffffffff168152602001908152602001600020549050919050565b660119f17fe16000341015610ff4576040517f08c379a0000000000000000000000000000000000000000000000000000000008152600401610feb906123c2565b60405180910390fd5b6000803373ffffffffffffffffffffffffffffffffffffffff1673ffffffffffffffffffffffffffffffffffffffff16815260200190815260200160002060085490806001815401808255809150506001900390600052602060002001600090919091909150553360016000600854815260200190815260200160002060006101000a81548173ffffffffffffffffffffffffffffffffffffffff021916908373ffffffffffffffffffffffffffffffffffffffff1602179055503360026000600854815260200190815260200160002060000160006101000a81548173ffffffffffffffffffffffffffffffffffffffff021916908373ffffffffffffffffffffffffffffffffffffffff16021790555084600260006008548152602001908152602001600020600101908161112b9190612270565b508360026000600854815260200190815260200160002060020190816111519190612270565b508260026000600854815260200190815260200160002060030190816111779190612270565b5034600260006008548152602001908152602001600020600401819055508160026000600854815260200190815260200160002060050190816111ba9190612270565b508060026000600854815260200190815260200160002060060190816111e09190612270565b50600060026000600854815260200190815260200160002060070160006101000a81548160ff02191690831515021790555060016008546112219190612342565b6008819055505050505050565b60056020528060005260406000206000915090508060000160009054906101000a900473ffffffffffffffffffffffffffffffffffffffff169080600101549080600201805461127d9061201c565b80601f01602080910402602001604051908101604052809291908181526020018280546112a99061201c565b80156112f65780601f106112cb576101008083540402835291602001916112f6565b820191906000526020600020905b8154815290600101906020018083116112d957829003601f168201915b50505050509080600301805461130b9061201c565b80601f01602080910402602001604051908101604052809291908181526020018280546113379061201c565b80156113845780601f1061135957610100808354040283529160200191611384565b820191906000526020600020905b81548152906001019060200180831161136757829003601f168201915b5050505050905084565b3373ffffffffffffffffffffffffffffffffffffffff166004600086815260200190815260200160002060009054906101000a900473ffffffffffffffffffffffffffffffffffffffff1673ffffffffffffffffffffffffffffffffffffffff161461142f576040517f08c379a00000000000000000000000000000000000000000000000000000000081526004016114269061242e565b60405180910390fd5b826005600060095481526020019081526020016000206001015414611489576040517f08c379a0000000000000000000000000000000000000000000000000000000008152600401611480906124c0565b60405180910390fd5b82600560006009548152602001908152602001600020600101819055508160056000600954815260200190815260200160002060020190816114cb9190612270565b508060056000600954815260200190815260200160002060030190816114f19190612270565b5050505050565b3373ffffffffffffffffffffffffffffffffffffffff166001600087815260200190815260200160002060009054906101000a900473ffffffffffffffffffffffffffffffffffffffff1673ffffffffffffffffffffffffffffffffffffffff1614611599576040517f08c379a00000000000000000000000000000000000000000000000000000000081526004016115909061242e565b60405180910390fd5b8360026000600854815260200190815260200160002060010190816115be9190612270565b508260026000600854815260200190815260200160002060020190816115e49190612270565b5081600260006008548152602001908152602001600020600301908161160a9190612270565b508060026000600854815260200190815260200160002060050190816116309190612270565b505050505050565b600060026000838152602001908152602001600020600401549050919050565b60016020528060005260406000206000915054906101000a900473ffffffffffffffffffffffffffffffffffffffff1681565b3373ffffffffffffffffffffffffffffffffffffffff166001600083815260200190815260200160002060009054906101000a900473ffffffffffffffffffffffffffffffffffffffff1673ffffffffffffffffffffffffffffffffffffffff161461172c576040517f08c379a00000000000000000000000000000000000000000000000000000000081526004016117239061242e565b60405180910390fd5b60016002600083815260200190815260200160002060070160006101000a81548160ff0219169083151502179055508173ffffffffffffffffffffffffffffffffffffffff166108fc60026000848152602001908152602001600020600401549081150290604051600060405180830381858888f193505050501580156117b7573d6000803e3d6000fd5b505050565b6000604051905090565b600080fd5b600080fd5b6000819050919050565b6117e3816117d0565b81146117ee57600080fd5b50565b600081359050611800816117da565b92915050565b60006020828403121561181c5761181b6117c6565b5b600061182a848285016117f1565b91505092915050565b600073ffffffffffffffffffffffffffffffffffffffff82169050919050565b600061185e82611833565b9050919050565b61186e81611853565b82525050565b60006020820190506118896000830184611865565b92915050565b61189881611853565b81146118a357600080fd5b50565b6000813590506118b58161188f565b92915050565b6000602082840312156118d1576118d06117c6565b5b60006118df848285016118a6565b91505092915050565b6118f1816117d0565b82525050565b600060208201905061190c60008301846118e8565b92915050565b600081519050919050565b600082825260208201905092915050565b60005b8381101561194c578082015181840152602081019050611931565b60008484015250505050565b6000601f19601f8301169050919050565b600061197482611912565b61197e818561191d565b935061198e81856020860161192e565b61199781611958565b840191505092915050565b60008115159050919050565b6119b7816119a2565b82525050565b6000610100820190506119d3600083018b611865565b81810360208301526119e5818a611969565b905081810360408301526119f98189611969565b90508181036060830152611a0d8188611969565b9050611a1c60808301876118e8565b81810360a0830152611a2e8186611969565b905081810360c0830152611a428185611969565b9050611a5160e08301846119ae565b9998505050505050505050565b600080fd5b600080fd5b7f4e487b7100000000000000000000000000000000000000000000000000000000600052604160045260246000fd5b611aa082611958565b810181811067ffffffffffffffff82111715611abf57611abe611a68565b5b80604052505050565b6000611ad26117bc565b9050611ade8282611a97565b919050565b600067ffffffffffffffff821115611afe57611afd611a68565b5b611b0782611958565b9050602081019050919050565b82818337600083830152505050565b6000611b36611b3184611ae3565b611ac8565b905082815260208101848484011115611b5257611b51611a63565b5b611b5d848285611b14565b509392505050565b600082601f830112611b7a57611b79611a5e565b5b8135611b8a848260208601611b23565b91505092915050565b600080600060608486031215611bac57611bab6117c6565b5b6000611bba868287016117f1565b935050602084013567ffffffffffffffff811115611bdb57611bda6117cb565b5b611be786828701611b65565b925050604084013567ffffffffffffffff811115611c0857611c076117cb565b5b611c1486828701611b65565b9150509250925092565b60008060408385031215611c3557611c346117c6565b5b6000611c43858286016118a6565b9250506020611c54858286016117f1565b9150509250929050565b600080600080600060a08688031215611c7a57611c796117c6565b5b600086013567ffffffffffffffff811115611c9857611c976117cb565b5b611ca488828901611b65565b955050602086013567ffffffffffffffff811115611cc557611cc46117cb565b5b611cd188828901611b65565b945050604086013567ffffffffffffffff811115611cf257611cf16117cb565b5b611cfe88828901611b65565b935050606086013567ffffffffffffffff811115611d1f57611d1e6117cb565b5b611d2b88828901611b65565b925050608086013567ffffffffffffffff811115611d4c57611d4b6117cb565b5b611d5888828901611b65565b9150509295509295909350565b6000611d7082611833565b9050919050565b611d8081611d65565b8114611d8b57600080fd5b50565b600081359050611d9d81611d77565b92915050565b600060208284031215611db957611db86117c6565b5b6000611dc784828501611d8e565b91505092915050565b6000608082019050611de56000830187611865565b611df260208301866118e8565b8181036040830152611e048185611969565b90508181036060830152611e188184611969565b905095945050505050565b60008060008060808587031215611e3d57611e3c6117c6565b5b6000611e4b878288016117f1565b9450506020611e5c878288016117f1565b935050604085013567ffffffffffffffff811115611e7d57611e7c6117cb565b5b611e8987828801611b65565b925050606085013567ffffffffffffffff811115611eaa57611ea96117cb565b5b611eb687828801611b65565b91505092959194509250565b600080600080600060a08688031215611ede57611edd6117c6565b5b6000611eec888289016117f1565b955050602086013567ffffffffffffffff811115611f0d57611f0c6117cb565b5b611f1988828901611b65565b945050604086013567ffffffffffffffff811115611f3a57611f396117cb565b5b611f4688828901611b65565b935050606086013567ffffffffffffffff811115611f6757611f666117cb565b5b611f7388828901611b65565b925050608086013567ffffffffffffffff811115611f9457611f936117cb565b5b611fa088828901611b65565b9150509295509295909350565b60008060408385031215611fc457611fc36117c6565b5b6000611fd285828601611d8e565b9250506020611fe3858286016117f1565b9150509250929050565b7f4e487b7100000000000000000000000000000000000000000000000000000000600052602260045260246000fd5b6000600282049050600182168061203457607f821691505b60208210810361204757612046611fed565b5b50919050565b7f4e487b7100000000000000000000000000000000000000000000000000000000600052601160045260246000fd5b6000612087826117d0565b91507fffffffffffffffffffffffffffffffffffffffffffffffffffffffffffffffff82036120b9576120b861204d565b5b600182019050919050565b60008190508160005260206000209050919050565b60006020601f8301049050919050565b600082821b905092915050565b6000600883026121267fffffffffffffffffffffffffffffffffffffffffffffffffffffffffffffffff826120e9565b61213086836120e9565b95508019841693508086168417925050509392505050565b6000819050919050565b600061216d612168612163846117d0565b612148565b6117d0565b9050919050565b6000819050919050565b61218783612152565b61219b61219382612174565b8484546120f6565b825550505050565b600090565b6121b06121a3565b6121bb81848461217e565b505050565b5b818110156121df576121d46000826121a8565b6001810190506121c1565b5050565b601f821115612224576121f5816120c4565b6121fe846120d9565b8101602085101561220d578190505b612221612219856120d9565b8301826121c0565b50505b505050565b600082821c905092915050565b600061224760001984600802612229565b1980831691505092915050565b60006122608383612236565b9150826002028217905092915050565b61227982611912565b67ffffffffffffffff81111561229257612291611a68565b5b61229c825461201c565b6122a78282856121e3565b600060209050601f8311600181146122da57600084156122c8578287015190505b6122d28582612254565b86555061233a565b601f1984166122e8866120c4565b60005b82811015612310578489015182556001820191506020850194506020810190506122eb565b8683101561232d5784890151612329601f891682612236565b8355505b6001600288020188555050505b505050505050565b600061234d826117d0565b9150612358836117d0565b92508282019050808211156123705761236f61204d565b5b92915050565b7f526577617264206973206c657373207468616e20302e3520646f6c6c61720000600082015250565b60006123ac601e8361191d565b91506123b782612376565b602082019050919050565b600060208201905081810360008301526123db8161239f565b9050919050565b7f5468697320626f756e7479206973206e6f7420796f7572730000000000000000600082015250565b600061241860188361191d565b9150612423826123e2565b602082019050919050565b600060208201905081810360008301526124478161240b565b9050919050565b7f54686973206973206e6f742074686520736f6c7574696f6e206f66207468697360008201527f20626f756e747900000000000000000000000000000000000000000000000000602082015250565b60006124aa60278361191d565b91506124b58261244e565b604082019050919050565b600060208201905081810360008301526124d98161249d565b905091905056fea2646970667358221220a122fbd1e3dcf2691810adfe3d109755e35dc5c8c6215bf4493e6e8a11d6f36864736f6c63430008140033",
  "linkReferences": {},
  "deployedLinkReferences": {}
}